{
  "contractName": "ERC20",
  "abi": [
    {
      "inputs": [
        {
          "internalType": "string",
          "name": "__name",
          "type": "string"
        },
        {
          "internalType": "string",
          "name": "__symbol",
          "type": "string"
        },
        {
          "internalType": "uint8",
          "name": "__decimals",
          "type": "uint8"
        },
        {
          "internalType": "uint256",
          "name": "__totalSupply",
          "type": "uint256"
        }
      ],
      "stateMutability": "nonpayable",
      "type": "constructor"
    },
    {
      "anonymous": false,
      "inputs": [
        {
          "indexed": true,
          "internalType": "address",
          "name": "_owner",
          "type": "address"
        },
        {
          "indexed": true,
          "internalType": "address",
          "name": "_spender",
          "type": "address"
        },
        {
          "indexed": false,
          "internalType": "uint256",
          "name": "_value",
          "type": "uint256"
        }
      ],
      "name": "Approval",
      "type": "event"
    },
    {
      "anonymous": false,
      "inputs": [
        {
          "indexed": true,
          "internalType": "address",
          "name": "_from",
          "type": "address"
        },
        {
          "indexed": true,
          "internalType": "address",
          "name": "_to",
          "type": "address"
        },
        {
          "indexed": false,
          "internalType": "uint256",
          "name": "_value",
          "type": "uint256"
        }
      ],
      "name": "Transfer",
      "type": "event"
    },
    {
      "inputs": [],
      "name": "contrato",
      "outputs": [
        {
          "internalType": "string",
          "name": "",
          "type": "string"
        }
      ],
      "stateMutability": "view",
      "type": "function",
      "constant": true
    },
    {
      "inputs": [],
      "name": "name",
      "outputs": [
        {
          "internalType": "string",
          "name": "",
          "type": "string"
        }
      ],
      "stateMutability": "view",
      "type": "function",
      "constant": true
    },
    {
      "inputs": [],
      "name": "symbol",
      "outputs": [
        {
          "internalType": "string",
          "name": "",
          "type": "string"
        }
      ],
      "stateMutability": "view",
      "type": "function",
      "constant": true
    },
    {
      "inputs": [],
      "name": "decimals",
      "outputs": [
        {
          "internalType": "uint8",
          "name": "",
          "type": "uint8"
        }
      ],
      "stateMutability": "view",
      "type": "function",
      "constant": true
    },
    {
      "inputs": [],
      "name": "totalSupply",
      "outputs": [
        {
          "internalType": "uint256",
          "name": "",
          "type": "uint256"
        }
      ],
      "stateMutability": "view",
      "type": "function",
      "constant": true
    },
    {
      "inputs": [
        {
          "internalType": "address",
          "name": "_owner",
          "type": "address"
        }
      ],
      "name": "balanceOf",
      "outputs": [
        {
          "internalType": "uint256",
          "name": "balance",
          "type": "uint256"
        }
      ],
      "stateMutability": "view",
      "type": "function",
      "constant": true
    },
    {
      "inputs": [
        {
          "internalType": "address",
          "name": "_owner",
          "type": "address"
        },
        {
          "internalType": "address",
          "name": "_spender",
          "type": "address"
        }
      ],
      "name": "allowance",
      "outputs": [
        {
          "internalType": "uint256",
          "name": "remaining",
          "type": "uint256"
        }
      ],
      "stateMutability": "view",
      "type": "function",
      "constant": true
    },
    {
      "inputs": [
        {
          "internalType": "address",
          "name": "_to",
          "type": "address"
        },
        {
          "internalType": "uint256",
          "name": "_value",
          "type": "uint256"
        }
      ],
      "name": "transfer",
      "outputs": [
        {
          "internalType": "bool",
          "name": "success",
          "type": "bool"
        }
      ],
      "stateMutability": "nonpayable",
      "type": "function"
    },
    {
      "inputs": [
        {
          "internalType": "address",
          "name": "_from",
          "type": "address"
        },
        {
          "internalType": "address",
          "name": "_to",
          "type": "address"
        },
        {
          "internalType": "uint256",
          "name": "_value",
          "type": "uint256"
        }
      ],
      "name": "transferFrom",
      "outputs": [
        {
          "internalType": "bool",
          "name": "success",
          "type": "bool"
        }
      ],
      "stateMutability": "nonpayable",
      "type": "function"
    },
    {
      "inputs": [
        {
          "internalType": "address",
          "name": "_spender",
          "type": "address"
        },
        {
          "internalType": "uint256",
          "name": "_value",
          "type": "uint256"
        }
      ],
      "name": "approve",
      "outputs": [
        {
          "internalType": "bool",
          "name": "success",
          "type": "bool"
        }
      ],
      "stateMutability": "nonpayable",
      "type": "function"
    }
  ],
  "bytecode": "0x60806040523480156200001157600080fd5b50604051620014ab380380620014ab8339818101604052810190620000379190620002d7565b8360009081620000489190620005c8565b5082600190816200005a9190620005c8565b5081600260006101000a81548160ff021916908360ff1602179055508060038190555080600460003373ffffffffffffffffffffffffffffffffffffffff1673ffffffffffffffffffffffffffffffffffffffff1681526020019081526020016000208190555050505050620006af565b6000604051905090565b600080fd5b600080fd5b600080fd5b600080fd5b6000601f19601f8301169050919050565b7f4e487b7100000000000000000000000000000000000000000000000000000000600052604160045260246000fd5b6200013482620000e9565b810181811067ffffffffffffffff82111715620001565762000155620000fa565b5b80604052505050565b60006200016b620000cb565b905062000179828262000129565b919050565b600067ffffffffffffffff8211156200019c576200019b620000fa565b5b620001a782620000e9565b9050602081019050919050565b60005b83811015620001d4578082015181840152602081019050620001b7565b60008484015250505050565b6000620001f7620001f1846200017e565b6200015f565b905082815260208101848484011115620002165762000215620000e4565b5b62000223848285620001b4565b509392505050565b600082601f830112620002435762000242620000df565b5b815162000255848260208601620001e0565b91505092915050565b600060ff82169050919050565b62000276816200025e565b81146200028257600080fd5b50565b60008151905062000296816200026b565b92915050565b6000819050919050565b620002b1816200029c565b8114620002bd57600080fd5b50565b600081519050620002d181620002a6565b92915050565b60008060008060808587031215620002f457620002f3620000d5565b5b600085015167ffffffffffffffff811115620003155762000314620000da565b5b62000323878288016200022b565b945050602085015167ffffffffffffffff811115620003475762000346620000da565b5b62000355878288016200022b565b9350506040620003688782880162000285565b92505060606200037b87828801620002c0565b91505092959194509250565b600081519050919050565b7f4e487b7100000000000000000000000000000000000000000000000000000000600052602260045260246000fd5b60006002820490506001821680620003da57607f821691505b602082108103620003f057620003ef62000392565b5b50919050565b60008190508160005260206000209050919050565b60006020601f8301049050919050565b600082821b905092915050565b6000600883026200045a7fffffffffffffffffffffffffffffffffffffffffffffffffffffffffffffffff826200041b565b6200046686836200041b565b95508019841693508086168417925050509392505050565b6000819050919050565b6000620004a9620004a36200049d846200029c565b6200047e565b6200029c565b9050919050565b6000819050919050565b620004c58362000488565b620004dd620004d482620004b0565b84845462000428565b825550505050565b600090565b620004f4620004e5565b62000501818484620004ba565b505050565b5b8181101562000529576200051d600082620004ea565b60018101905062000507565b5050565b601f82111562000578576200054281620003f6565b6200054d846200040b565b810160208510156200055d578190505b620005756200056c856200040b565b83018262000506565b50505b505050565b600082821c905092915050565b60006200059d600019846008026200057d565b1980831691505092915050565b6000620005b883836200058a565b9150826002028217905092915050565b620005d38262000387565b67ffffffffffffffff811115620005ef57620005ee620000fa565b5b620005fb8254620003c1565b620006088282856200052d565b600060209050601f8311600181146200064057600084156200062b578287015190505b620006378582620005aa565b865550620006a7565b601f1984166200065086620003f6565b60005b828110156200067a5784890151825560018201915060208501945060208101905062000653565b868310156200069a578489015162000696601f8916826200058a565b8355505b6001600288020188555050505b505050505050565b610dec80620006bf6000396000f3fe608060405234801561001057600080fd5b506004361061009e5760003560e01c806370a082311161006657806370a082311461015d57806395d89b411461018d578063a9059cbb146101ab578063dd62ed3e146101db578063e1a01e671461020b5761009e565b806306fdde03146100a3578063095ea7b3146100c157806318160ddd146100f157806323b872dd1461010f578063313ce5671461013f575b600080fd5b6100ab610229565b6040516100b891906109db565b60405180910390f35b6100db60048036038101906100d69190610a96565b6102bb565b6040516100e89190610af1565b60405180910390f35b6100f96103ad565b6040516101069190610b1b565b60405180910390f35b61012960048036038101906101249190610b36565b6103b7565b6040516101369190610af1565b60405180910390f35b610147610627565b6040516101549190610ba5565b60405180910390f35b61017760048036038101906101729190610bc0565b61063e565b6040516101849190610b1b565b60405180910390f35b610195610687565b6040516101a291906109db565b60405180910390f35b6101c560048036038101906101c09190610a96565b610719565b6040516101d29190610af1565b60405180910390f35b6101f560048036038101906101f09190610bed565b610836565b6040516102029190610b1b565b60405180910390f35b6102136108bd565b60405161022091906109db565b60405180910390f35b60606000805461023890610c5c565b80601f016020809104026020016040519081016040528092919081815260200182805461026490610c5c565b80156102b15780601f10610286576101008083540402835291602001916102b1565b820191906000526020600020905b81548152906001019060200180831161029457829003601f168201915b5050505050905090565b600081600560003373ffffffffffffffffffffffffffffffffffffffff1673ffffffffffffffffffffffffffffffffffffffff16815260200190815260200160002060008573ffffffffffffffffffffffffffffffffffffffff1673ffffffffffffffffffffffffffffffffffffffff168152602001908152602001600020819055508273ffffffffffffffffffffffffffffffffffffffff163373ffffffffffffffffffffffffffffffffffffffff167f8c5be1e5ebec7d5bd14f71427d1e84f3dd0314c0f7b2291e5b200ac8c7c3b9258460405161039b9190610b1b565b60405180910390a36001905092915050565b6000600354905090565b600081600560008673ffffffffffffffffffffffffffffffffffffffff1673ffffffffffffffffffffffffffffffffffffffff16815260200190815260200160002060003373ffffffffffffffffffffffffffffffffffffffff1673ffffffffffffffffffffffffffffffffffffffff168152602001908152602001600020541015610478576040517f08c379a000000000000000000000000000000000000000000000000000000000815260040161046f90610cff565b60405180910390fd5b81600560008673ffffffffffffffffffffffffffffffffffffffff1673ffffffffffffffffffffffffffffffffffffffff16815260200190815260200160002060003373ffffffffffffffffffffffffffffffffffffffff1673ffffffffffffffffffffffffffffffffffffffff16815260200190815260200160002060008282546105049190610d4e565b9250508190555081600460008673ffffffffffffffffffffffffffffffffffffffff1673ffffffffffffffffffffffffffffffffffffffff168152602001908152602001600020600082825461055a9190610d4e565b9250508190555081600460008573ffffffffffffffffffffffffffffffffffffffff1673ffffffffffffffffffffffffffffffffffffffff16815260200190815260200160002060008282546105b09190610d82565b925050819055508273ffffffffffffffffffffffffffffffffffffffff168473ffffffffffffffffffffffffffffffffffffffff167fddf252ad1be2c89b69c2b068fc378daa952ba7f163c4a11628f55a4df523b3ef846040516106149190610b1b565b60405180910390a3600190509392505050565b6000600260009054906101000a900460ff16905090565b6000600460008373ffffffffffffffffffffffffffffffffffffffff1673ffffffffffffffffffffffffffffffffffffffff168152602001908152602001600020549050919050565b60606001805461069690610c5c565b80601f01602080910402602001604051908101604052809291908181526020018280546106c290610c5c565b801561070f5780601f106106e45761010080835404028352916020019161070f565b820191906000526020600020905b8154815290600101906020018083116106f257829003601f168201915b5050505050905090565b600081600460003373ffffffffffffffffffffffffffffffffffffffff1673ffffffffffffffffffffffffffffffffffffffff168152602001908152602001600020600082825461076a9190610d4e565b9250508190555081600460008573ffffffffffffffffffffffffffffffffffffffff1673ffffffffffffffffffffffffffffffffffffffff16815260200190815260200160002060008282546107c09190610d82565b925050819055508273ffffffffffffffffffffffffffffffffffffffff163373ffffffffffffffffffffffffffffffffffffffff167fddf252ad1be2c89b69c2b068fc378daa952ba7f163c4a11628f55a4df523b3ef846040516108249190610b1b565b60405180910390a36001905092915050565b6000600560008473ffffffffffffffffffffffffffffffffffffffff1673ffffffffffffffffffffffffffffffffffffffff16815260200190815260200160002060008373ffffffffffffffffffffffffffffffffffffffff1673ffffffffffffffffffffffffffffffffffffffff16815260200190815260200160002054905092915050565b600680546108ca90610c5c565b80601f01602080910402602001604051908101604052809291908181526020018280546108f690610c5c565b80156109435780601f1061091857610100808354040283529160200191610943565b820191906000526020600020905b81548152906001019060200180831161092657829003601f168201915b505050505081565b600081519050919050565b600082825260208201905092915050565b60005b8381101561098557808201518184015260208101905061096a565b60008484015250505050565b6000601f19601f8301169050919050565b60006109ad8261094b565b6109b78185610956565b93506109c7818560208601610967565b6109d081610991565b840191505092915050565b600060208201905081810360008301526109f581846109a2565b905092915050565b600080fd5b600073ffffffffffffffffffffffffffffffffffffffff82169050919050565b6000610a2d82610a02565b9050919050565b610a3d81610a22565b8114610a4857600080fd5b50565b600081359050610a5a81610a34565b92915050565b6000819050919050565b610a7381610a60565b8114610a7e57600080fd5b50565b600081359050610a9081610a6a565b92915050565b60008060408385031215610aad57610aac6109fd565b5b6000610abb85828601610a4b565b9250506020610acc85828601610a81565b9150509250929050565b60008115159050919050565b610aeb81610ad6565b82525050565b6000602082019050610b066000830184610ae2565b92915050565b610b1581610a60565b82525050565b6000602082019050610b306000830184610b0c565b92915050565b600080600060608486031215610b4f57610b4e6109fd565b5b6000610b5d86828701610a4b565b9350506020610b6e86828701610a4b565b9250506040610b7f86828701610a81565b9150509250925092565b600060ff82169050919050565b610b9f81610b89565b82525050565b6000602082019050610bba6000830184610b96565b92915050565b600060208284031215610bd657610bd56109fd565b5b6000610be484828501610a4b565b91505092915050565b60008060408385031215610c0457610c036109fd565b5b6000610c1285828601610a4b565b9250506020610c2385828601610a4b565b9150509250929050565b7f4e487b7100000000000000000000000000000000000000000000000000000000600052602260045260246000fd5b60006002820490506001821680610c7457607f821691505b602082108103610c8757610c86610c2d565b5b50919050565b7f596f7520646f206e6f74206861766520746861742076616c756520617661696c60008201527f61626c6500000000000000000000000000000000000000000000000000000000602082015250565b6000610ce9602483610956565b9150610cf482610c8d565b604082019050919050565b60006020820190508181036000830152610d1881610cdc565b9050919050565b7f4e487b7100000000000000000000000000000000000000000000000000000000600052601160045260246000fd5b6000610d5982610a60565b9150610d6483610a60565b9250828203905081811115610d7c57610d7b610d1f565b5b92915050565b6000610d8d82610a60565b9150610d9883610a60565b9250828201905080821115610db057610daf610d1f565b5b9291505056fea264697066735822122014b5d3089bd5f3c5cdf6c78b18f7e3ba8534a999f0d4473db11f7d07f9a0f26164736f6c63430008130033",
  "immutableReferences": {},
  "source": "// SPDX-License-Identifier: MIT\npragma solidity ^0.8.19;\n\n\ninterface IERC20 {\n    function name() external view returns (string memory);\n\n    function symbol() external view returns (string memory);\n\n    function decimals() external view returns (uint8);\n\n    function totalSupply() external view returns (uint256);\n\n    function balanceOf(address _owner) external view returns (uint256 balance);\n\n    function transfer(\n        address _to,\n        uint256 _value\n    ) external returns (bool success);\n\n    function transferFrom(\n        address _from,\n        address _to,\n        uint256 _value\n    ) external returns (bool success);\n\n    function approve(\n        address _spender,\n        uint256 _value\n    ) external returns (bool success);\n\n    function allowance(\n        address _owner,\n        address _spender\n    ) external view returns (uint256 remaining);\n}\n\ncontract ERC20 {\n    string private _name;\n    string private _symbol;\n    uint8 private _decimals;\n    uint256 private _totalSupply;\n    mapping(address => uint256) _balanceOf; // _balanceOf[address] => uint256\n    mapping(address => mapping(address => uint256)) _allowance; // _allownce[address][address] => uint256\n    string public contrato;\n\n    constructor(\n        string memory __name,\n        string memory __symbol,\n        uint8 __decimals,\n        uint256 __totalSupply\n    ) {\n        _name = __name;\n        _symbol = __symbol;\n        _decimals = __decimals;\n        _totalSupply = __totalSupply;\n        _balanceOf[msg.sender] = __totalSupply;\n    }\n\n    function name() external view returns (string memory) {\n        return (_name);\n    }\n\n    function symbol() external view returns (string memory) {\n        return (_symbol);\n    }\n\n    function decimals() external view returns (uint8) {\n        return (_decimals);\n    }\n\n    function totalSupply() external view returns (uint256) {\n        return (_totalSupply);\n    }\n\n    function balanceOf(address _owner) external view returns (uint256 balance) {\n        return (_balanceOf[_owner]);\n    }\n\n    function allowance(\n        address _owner,\n        address _spender\n    ) external view returns (uint256 remaining) {\n        return (_allowance[_owner][_spender]);\n    }\n\n    function transfer(\n        address _to,\n        uint256 _value\n    ) external returns (bool success) {\n        _balanceOf[msg.sender] -= _value;\n        _balanceOf[_to] += _value;\n        emit Transfer(msg.sender, _to, _value);\n        return (true);\n    }\n\n    function transferFrom(\n        address _from,\n        address _to,\n        uint256 _value\n    ) external returns (bool success) {\n        require(\n            _allowance[_from][msg.sender] >= _value,\n            \"You do not have that value available\"\n        );\n        _allowance[_from][msg.sender] -= _value;\n        _balanceOf[_from] -= _value;\n        _balanceOf[_to] += _value;\n        emit Transfer(_from, _to, _value);\n        return (true);\n    }\n\n    function approve(\n        address _spender,\n        uint256 _value\n    ) external returns (bool success) {\n        _allowance[msg.sender][_spender] = _value;\n        emit Approval(msg.sender, _spender, _value);\n        return (true);\n    }\n\n    event Transfer(address indexed _from, address indexed _to, uint256 _value);\n    event Approval(\n        address indexed _owner,\n        address indexed _spender,\n        uint256 _value\n    );\n}\n",
  "sourcePath": "/Users/germanderbescatoni/Documents/truffle/contracts/Token.sol",
  "compiler": {
    "name": "solc",
    "version": "0.8.19+commit.7dd6d404.Emscripten.clang"
  },
  "schemaVersion": "3.4.14",
  "updatedAt": "2023-08-02T18:40:43.443Z",
  "networkType": "ethereum",
  "devdoc": {
    "kind": "dev",
    "methods": {},
    "version": 1
  },
  "userdoc": {
    "kind": "user",
    "methods": {},
    "version": 1
  }
}